:100000000C942A000C947B080C9447000C94470035
:100010000C9447000C9447000C9447000C94470044
:100020000C9447000C9447000C949F060C944700D6
:100030000C9447000C9447000C9447000C94470024
:100040000C9447000C9447000C9447000C94470014
:100050000C94470011241FBECFE5D8E0DEBFCDBF12
:1000600010E0A0E6B0E0E6EEFEE202C005900D92E0
:10007000A637B107D9F710E0A6E7B0E001C01D929E
:10008000AF38B107E1F70E9497160C9471170C94E2
:100090000000EF92FF920F931F937B018C0120E0F1
:1000A00030E040E05FE40E94490388238CF0C801FF
:1000B000B70120E030E040E05FE40E94C1010E940F
:1000C000A9039B01AC01205030404040504806C07D
:1000D000C801B7010E94A9039B01AC01B901CA0183
:1000E0001F910F91FF90EF900895A0E0B0E0EBE733
:1000F000F0E00C940917DC012B01FA019C9192307D
:1001000008F439C1EB018881823008F433C194309E
:1001100069F4843009F02FC111969C91119789815F
:10012000981709F428C1A0E6B0E025C1843009F48D
:1001300021C18230A9F4923009F01DC19A01AD01AC
:1001400088E0EA010990AE01E90109929E0181501F
:10015000C1F7E201898111969C918923818308C1AD
:10016000923009F407C112962D903C901397EB0141
:100170008A819B811496AD90BD90CD90DC901797AD
:10018000EC80FD800E811F819101281B390BB90184
:1001900037FF04C066277727621B730B6032710537
:1001A0000CF061C0121613066CF537014801062EDB
:1001B00004C096948794779467940A94D2F721E0C8
:1001C00030E040E050E004C0220F331F441F551FB1
:1001D0006A95D2F721503040404050402E213F21B7
:1001E00040235123211531054105510521F021E01E
:1001F00030E040E050E079018A01E628F72808293C
:1002000019293CC0232BD1F1260E371E350146019A
:10021000062E04C096948794779467940A94D2F734
:1002200021E030E040E050E004C0220F331F441FC3
:10023000551F6A95D2F721503040404050402A2146
:100240003B214C215D21211531054105510521F04E
:1002500021E030E040E050E059016A01A628B728CB
:10026000C828D9280BC0821593052CF01C01AA249C
:10027000BB24650103C0EE24FF24870111969C91E5
:10028000D20111968C91981709F445C0992339F041
:10029000A80197012A193B094C095D0906C0A6016E
:1002A00095012E193F09400B510B57FD08C01182D3
:1002B0003382228224833583468357831DC081E0A5
:1002C00081833382228288279927DC01821B930B4A
:1002D000A40BB50B84839583A683B7830DC0220F2F
:1002E000331F441F551F24833583468357838281E0
:1002F000938101979383828324813581468157813D
:10030000DA01C9010197A109B1098F5F9F4FAF4F72
:10031000BF4328F30BC0918333822282EA0CFB1C7B
:100320000C1D1D1DE482F5820683178383E0808304
:10033000248135814681578157FF1AC0C901AA27F8
:1003400097FDA095BA2F81709070A070B0705695EF
:10035000479537952795822B932BA42BB52B848318
:100360009583A683B7838281938101969383828349
:10037000DF0101C0D201CD01CDB7DEB7E2E10C94BF
:100380002517A0E2B0E0E7ECF1E00C9415176983C3
:100390007A838B839C832D833E834F835887E9E048
:1003A000EE2EF12CEC0EFD1ECE010196B7010E943F
:1003B000D2048E010F5E1F4FCE010596B8010E9438
:1003C000D2048A8991E089278A8BC701B801AE01DE
:1003D000475E5F4F0E9475000E94FD03A096E6E015
:1003E0000C943117A0E2B0E0E8EFF1E00C9415179F
:1003F00069837A838B839C832D833E834F835887C5
:10040000F9E0EF2EF12CEC0EFD1ECE010196B701A6
:100410000E94D2048E010F5E1F4FCE010596B801D7
:100420000E94D204C701B801AE01475E5F4F0E942F
:1004300075000E94FD03A096E6E00C943117A0E23F
:10044000B0E0E5E2F2E00C94091769837A838B83CC
:100450009C832D833E834F835887CE010196BE0136
:10046000675F7F4F0E94D204CE010596BE016F5E8A
:100470007F4F0E94D2049985923088F0898982301A
:10048000C8F0943019F4823051F404C0843029F457
:10049000923081F480E690E0C6C0923049F420E0CA
:1004A0009A858A89981321E02A87CE010996BBC0D4
:1004B000823049F420E09A858A89981321E02A8BBA
:1004C000CE014196B0C02D843E844F8458886D88FB
:1004D0007E888F88988CEE24FF248701AA24BB2471
:1004E000650140E050E060E070E0E0E0F0E0C10174
:1004F00081709070892BE9F0E60CF71C081D191D1E
:100500009A01AB012A0D3B1D4C1D5D1D80E090E062
:10051000A0E0B0E0E614F7040805190520F481E036
:1005200090E0A0E0B0E0BA01A901480F591F6A1F8E
:100530007B1FAA0CBB1CCC1CDD1C97FE08C081E0F5
:1005400090E0A0E0B0E0A82AB92ACA2ADB2A3196B6
:10055000E032F10549F0660C771C881C991C569412
:10056000479437942794C3CFFA85EA892B893C892D
:100570008B859C85280F391F2E5F3F4F17C0CA01FE
:1005800081709070892B61F016950795F794E79428
:1005900080E090E0A0E0B0E8E82AF92A0A2B1B2BC3
:1005A00076956795579547952F5F3F4F77FDE7CF36
:1005B0000CC0440F551F661F771F17FD4160EE0CDE
:1005C000FF1C001F111F21503040403090E05907A0
:1005D00090E0690790E4790760F32B8F3C8FDB0193
:1005E000CA018F779070A070B07080349105A1051A
:1005F000B10561F447FD0AC0E114F10401051105DC
:1006000029F0405C5F4F6F4F7F4F40781A8EFE1786
:1006100011F081E08A8F4D8F5E8F6F8F78A383E01A
:10062000898FCE0149960E94FD03A096E2E10C94C9
:100630002517A8E1B0E0EFE1F3E00C94151769830A
:100640007A838B839C832D833E834F83588789E0F5
:10065000E82EF12CEC0EFD1ECE010196B7010E9492
:10066000D2048E010F5E1F4FCE010596B8010E9485
:10067000D2048985823040F08989823028F0C70110
:10068000B8010E944A0501C08FEF6896E6E00C941D
:100690003117A8E1B0E0EFE4F3E00C94151769839B
:1006A0007A838B839C832D833E834F83588789E095
:1006B000E82EF12CEC0EFD1ECE010196B7010E9432
:1006C000D2048E010F5E1F4FCE010596B8010E9425
:1006D000D2048985823040F08989823028F0C701B0
:1006E000B8010E944A0501C08FEF6896E6E00C94BD
:1006F0003117A8E1B0E0EFE7F3E00C941517698338
:100700007A838B839C832D833E834F83588789E034
:10071000E82EF12CEC0EFD1ECE010196B7010E94D1
:10072000D2048E010F5E1F4FCE010596B8010E94C4
:10073000D2048985823040F08989823028F0C7014F
:10074000B8010E944A0501C081E06896E6E00C9479
:100750003117ACE0B0E0EFEAF3E00C9419176983CD
:100760007A838B839C83CE010196BE016B5F7F4FA2
:100770000E94D2048D81823061F1823050F1843048
:1007800021F48E81882351F12EC02F81388537FDC9
:1007900020C06E812F3131051CF06623F9F023C093
:1007A0008EE190E0821B930B29853A854B855C8511
:1007B00004C056954795379527958A95D2F76623B5
:1007C000B1F050954095309521953F4F4F4F5F4F79
:1007D0000EC020E030E040E050E009C02FEF3FEFD6
:1007E0004FEF5FE704C020E030E040E050E8B9019F
:1007F000CA012C96E2E00C943517DF92EF92FF923B
:100800000F931F93FC01E480F58006811781D1804E
:100810008081823048F480E090E0A0E1B0E0E82AF6
:10082000F92A0A2B1B2BA5C0843009F49FC0823003
:1008300021F4EE24FF24870105C0E114F104010531
:10084000110519F4E0E0F0E096C0628173819FEF3A
:10085000623879070CF05BC022E83FEF261B370BAC
:100860002A3131052CF020E030E040E050E02AC091
:10087000B801A701022E04C0769567955795479554
:100880000A94D2F781E090E0A0E0B0E004C0880FC5
:10089000991FAA1FBB1F2A95D2F70197A109B10979
:1008A0008E219F21A023B1230097A105B10521F03E
:1008B00081E090E0A0E0B0E09A01AB01282B392B59
:1008C0004A2B5B2BDA01C9018F779070A070B07052
:1008D00080349105A105B10539F427FF09C0205CDA
:1008E0003F4F4F4F5F4F04C0215C3F4F4F4F5F4F13
:1008F000E0E0F0E02030A0E03A07A0E04A07A0E402
:100900005A0710F0E1E0F0E079018A0127C0603871
:10091000710564F5FB01E158FF4FD801C7018F77DE
:100920009070A070B07080349105A105B10539F4C4
:10093000E7FE0DC080E490E0A0E0B0E004C08FE3EB
:1009400090E0A0E0B0E0E80EF91E0A1F1B1F17FFA1
:1009500005C016950795F794E794319687E01695AC
:100960000795F794E7948A95D1F705C0EE24FF2404
:100970008701EFEFF0E06E2F679566276795902F60
:100980009F77D794DD24D7948E2F8695492F462BB9
:10099000582F5D29B701CA011F910F91FF90EF9069
:1009A000DF900895FC01DB01408151812281622F9B
:1009B0006F7770E0221F2227221F9381892F880FD3
:1009C000822B282F30E0991F9927991F11969C930D
:1009D000119721153105A9F54115510561057105DD
:1009E00011F482E037C082E89FEF13969C938E93B8
:1009F00012979A01AB0167E0220F331F441F551F66
:100A00006A95D1F783E08C930DC0220F331F441FEA
:100A1000551F12968D919C911397019713969C9355
:100A20008E931297203080E0380780E0480780E4FA
:100A3000580758F314962D933D934D935C93179755
:100A400008952F3F310579F4411551056105710570
:100A500019F484E08C93089564FF03C081E08C93C3
:100A600012C01C9210C02F57304013963C932E9307
:100A7000129783E08C9387E0440F551F661F771F02
:100A80008A95D1F7706414964D935D936D937C9322
:100A9000179708951F93DC01FB019C91923008F495
:100AA00047C08081823008F443C0943051F41196DD
:100AB0001C91843099F58181682F70E0611B710968
:100AC0003FC0843021F0923031F48230B9F181811D
:100AD000882389F12DC011961C9111978230F1F075
:100AE00081811817D9F412962D913C911397828128
:100AF00093818217930794F028173907BCF0149656
:100B00008D919D910D90BC91A02D248135814681C0
:100B10005781281739074A075B0718F4112341F05A
:100B20000AC082179307A407B50740F4112319F0F0
:100B300061E070E005C06FEF7FEF02C060E070E041
:100B4000CB011F910895DF93CF93CDB7DEB7E0E4DB
:100B5000F0E01082EAE2F0E088E08083E0E4F0E098
:100B600086E88083E9E2F0E083E38083CF91DF9140
:100B70000895DF93CF930F92CDB7DEB78983EBE271
:100B8000F0E08081882F90E0807290700097B9F338
:100B9000ECE2F0E0898180830F90CF91DF9108959E
:100BA000DF93CF9300D0CDB7DEB79A8389830BC094
:100BB000E981FA81208189819A8101969A838983CA
:100BC000822F0E94B905E981FA818081882381F70B
:100BD0000F900F90CF91DF910895DF93CF930F92F5
:100BE000CDB7DEB78983EBE2F0E080818295869510
:100BF0008770882F90E0817090700097A1F3ECE2ED
:100C0000F0E0898180830F90CF91DF910895DF9389
:100C1000CF93CDB7DEB728970FB6F894DEBF0FBEDF
:100C2000CDBF98878F838F8198859E012F5F3F4F1F
:100C3000B9014AE050E00E944017CE0101960E949F
:100C4000D00528960FB6F894DEBF0FBECDBFCF916A
:100C5000DF910895DF93CF9300D0CDB7DEB79A83AD
:100C600089830BC0E981FA81208189819A8101966B
:100C70009A838983822F0E94ED05E981FA81808120
:100C8000882381F70F900F90CF91DF910895DF9324
:100C9000CF93CDB7DEB7E3E5F0E01082A3E5B0E097
:100CA000E3E5F0E0808188608C93ECE5F0E08AEF8A
:100CB0008083A9E5B0E0E9E5F0E0808182608C9373
:100CC000AFE5B0E0EFE5F0E0808180688C93CF91F4
:100CD000DF910895DF93CF9300D0CDB7DEB79A832D
:100CE000898389819A8190937700809376000F9011
:100CF0000F90CF91DF910895DF93CF93CDB7DEB7FB
:100D0000A3E5B0E0E3E5F0E0808184608C93A3E5A7
:100D1000B0E0E3E5F0E0808181608C93CF91DF91DA
:100D20000895DF93CF93CDB7DEB7A3E5B0E0E3E559
:100D3000F0E08081887F8C93CF91DF9108951F929E
:100D40000F920FB60F9211242F933F934F935F93FF
:100D50006F937F938F939F93AF93BF93EF93FF9383
:100D6000DF93CF93CDB7DEB7809176009091770077
:100D7000009729F0E0917600F09177000995CF91E6
:100D8000DF91FF91EF91BF91AF919F918F917F91F3
:100D90006F915F914F913F912F910F900FBE0F90E8
:100DA0001F901895DF93CF93CDB7DEB78091780071
:100DB00090917900A0917A00B0917B00BC01CD01A7
:100DC000CF91DF910895DF93CF9300D00F92CDB7ED
:100DD000DEB789838981282F30E03B832A838A818B
:100DE0009B818130910589F02A813B812230310538
:100DF000A1F08A819B810097B9F4ABE5B0E0EBE507
:100E0000F0E0808180648C930FC0ABE5B0E0EBE54F
:100E1000F0E0808180688C9307C0ABE5B0E0EBE543
:100E2000F0E0808180628C930F900F900F90CF91B3
:100E3000DF910895DF93CF9300D00F92CDB7DEB747
:100E400089838981282F30E03B832A838A819B8193
:100E50008130910589F02A813B8122303105A1F052
:100E60008A819B810097B9F4ABE5B0E0EBE5F0E057
:100E700080818F7B8C930FC0ABE5B0E0EBE5F0E0B9
:100E800080818F778C9307C0ABE5B0E0EBE5F0E0B5
:100E900080818F7D8C930F900F900F90CF91DF9179
:100EA0000895DF93CF93CDB7DEB7ABE5B0E0EBE5C8
:100EB000F0E080818F7B8C93ABE5B0E0EBE5F0E078
:100EC00080818F778C93ABE5B0E0EBE5F0E080813B
:100ED0008F7D8C93CF91DF910895DF93CF93CDB722
:100EE000DEB728970FB6F894DEBF0FBECDBF89835B
:100EF0006A838981282F30E038872F838F819885F6
:100F00008130910509F467C02F8138852230310581
:100F100009F4BDC08F819885009709F0CDC08A8102
:100F2000282F30E03E832D838D819E818130910575
:100F300009F442C02D813E81223031052CF48D818F
:100F40009E81009761F0B8C02D813E81223031052D
:100F5000A9F08D819E8183309105F9F0ADC0A5E5A2
:100F6000B0E0E5E5F0E080818E7F8C93A5E5B0E010
:100F7000E5E5F0E080818D7F8C939EC0A5E5B0E033
:100F8000E5E5F0E080818E7F8C93A5E5B0E0E5E5B6
:100F9000F0E0808182608C938FC0A5E5B0E0E5E54C
:100FA000F0E0808181608C93A5E5B0E0E5E5F0E0BC
:100FB000808182608C9380C0A5E5B0E0E5E5F0E03B
:100FC000808181608C93A5E5B0E0E5E5F0E080816B
:100FD0008D7F8C9371C08A81282F30E03C832B83D6
:100FE0008B819C818130910509F442C02B813C8129
:100FF000223031052CF48B819C81009761F05CC01C
:101000002B813C8122303105A9F08B819C8183307A
:101010009105F9F051C0A5E5B0E0E5E5F0E080818B
:101020008B7F8C93A5E5B0E0E5E5F0E08081877FDC
:101030008C9342C0A5E5B0E0E5E5F0E080818B7FD0
:101040008C93A5E5B0E0E5E5F0E0808188608C93C5
:1010500033C0A5E5B0E0E5E5F0E0808184608C93E5
:10106000A5E5B0E0E5E5F0E0808188608C9324C0E0
:10107000A5E5B0E0E5E5F0E0808184608C93A5E52E
:10108000B0E0E5E5F0E08081877F8C9315C08A8130
:10109000823041F4A4E5B0E0E4E5F0E080818F7BAC
:1010A0008C930AC08A81833039F4A4E5B0E0E4E58A
:1010B000F0E0808180648C9328960FB6F894DEBFB0
:1010C0000FBECDBFCF91DF910895DF93CF9300D0B6
:1010D000CDB7DEB79A83898389819A81009731F0F1
:1010E00089819A8190937D0080937C000F900F906E
:1010F000CF91DF9108951F920F920FB60F92112496
:101100002F933F934F935F936F937F938F939F930F
:10111000AF93BF93EF93FF93DF93CF93CDB7DEB73A
:1011200080917C0090917D00009729F0E0917C00F7
:10113000F0917D000995CF91DF91FF91EF91BF91E3
:10114000AF919F918F917F916F915F914F913F915F
:101150002F910F900FBE0F901F901895DF93CF9394
:10116000CDB7DEB7CF91DF910895DF93CF9300D055
:1011700000D00F92CDB7DEB79A8389837C836B83CF
:1011800089819A8124E08030920718F081E08D8374
:101190002AC08B819C81009719F424E02D8323C001
:1011A000ECE3F0E080818695882F90E0817090706C
:1011B0008823B1F7EEE3F0E089818083EFE3F0E08C
:1011C00089819A81892F99278083ACE3B0E0ECE391
:1011D000F0E0808181608C93EDE3F0E08081EB8131
:1011E000FC8180831D828D810F900F900F900F9056
:1011F0000F90CF91DF910895DF93CF93CDB7DEB7F6
:1012000029970FB6F894DEBF0FBECDBF9F838E83A4
:1012100068878E819F8124E08030920718F081E0FA
:1012200089875AC0EFE5F0E080818D83AFE5B0E0BB
:10123000EFE5F0E080818F778C9319821A821B8210
:101240001C821EC089819A81AB81BC810196A11D3F
:10125000B11D89839A83AB83BC8389819A81AB81D9
:10126000BC81813127E2920720E0A20720E0B2078B
:1012700038F0EFE5F0E08D81808382E089872CC033
:10128000ECE3F0E080818695882F90E0817090708B
:101290008823C1F6EEE3F0E08E818083EFE3F0E097
:1012A0008E819F81892F99278083EDE3F0E08885E7
:1012B0008083ACE3B0E0ECE3F0E0808184608C9369
:1012C000ACE3B0E0ECE3F0E0808182608C93EFE58A
:1012D000F0E08D8180831986898529960FB6F89470
:1012E000DEBF0FBECDBFCF91DF910895DF93CF93C7
:1012F000CDB7DEB762970FB6F894DEBF0FBECDBF95
:10130000898B8989833218F089898C3418F084E0BC
:101310008A8B8DC080E090E069890E94FC088F87ED
:101320008F85882309F081C080E090E0A0E2B1E4DD
:101330008B879C87AD87BE876B857C858D859E85D9
:1013400020E030E04AE755E40E941F02DC01CB01B7
:101350008F839887A987BA876F81788589859A85D1
:1013600020E030E040E85FE30E94790388232CF41A
:1013700081E090E09E838D833FC06F817885898571
:101380009A8520E03FEF4FE757E40E9419031816B3
:101390004CF56B857C858D859E8520E030E040E2B4
:1013A00051E40E941F02DC01CB01BC01CD010E946F
:1013B0004900DC01CB019E838D830FC080E991E061
:1013C0009C838B838B819C810197F1F79C838B831A
:1013D0008D819E8101979E838D838D819E81009753
:1013E00069F714C06F81788589859A850E944900C4
:1013F000DC01CB019E838D838D819E819A838983BD
:1014000089819A810197F1F79A8389839E01205FF0
:101410003F4F80E090E0B9010E94B5089889898922
:10142000981719F085E08A8B02C08F858A8B8A898C
:1014300062960FB6F894DEBF0FBECDBFCF91DF919D
:101440000895DF93CF9300D00F92CDB7DEB79A8384
:10145000898389819A81009719F484E08B8308C07D
:1014600029813A8180E090E0B9010E94B5088B8320
:101470008B810F900F900F90CF91DF910895DF93A4
:10148000CF93CDB7DEB783E062E040E00E94870AE9
:1014900083E062E041E00E948B0B83E063E040E088
:1014A0000E94870A83E063E041E00E948B0B83E0A7
:1014B00064E040E00E94870A83E064E041E00E942B
:1014C0008B0B81E060E041E00E94870A81E060E0F0
:1014D00040E00E948B0B81E061E041E00E94870ABE
:1014E00081E061E040E00E948B0B81E062E041E03E
:1014F0000E94870A81E062E040E00E948B0B80E05E
:1015000060E040E00E94870ACF91DF910895DF9369
:10151000CF93CDB7DEB727970FB6F894DEBF0FBED7
:10152000CDBF89836A834B838A81883008F0EAC003
:101530008B81882309F074C08981282F30E03F8394
:101540002E838E819F818130910559F12E813F81BB
:10155000223031052CF48E819F81009769F0D2C032
:101560002E813F812230310589F18E819F81833028
:10157000910509F440C0C6C0AAE3B0E0EAE3F0E098
:101580008081482F8A81282F30E081E090E0022E70
:1015900002C0880F991F0A94E2F7809584238C93E8
:1015A000B1C0A7E3B0E0E7E3F0E08081482F8A8193
:1015B000282F30E081E090E0022E02C0880F991FB2
:1015C0000A94E2F7809584238C939CC0A4E3B0E056
:1015D000E4E3F0E08081482F8A81282F30E081E029
:1015E00090E0022E02C0880F991F0A94E2F78095BE
:1015F00084238C9387C0A1E3B0E0E1E3F0E0808135
:10160000482F8A81282F30E081E090E0022E02C02E
:10161000880F991F0A94E2F7809584238C9372C0F7
:101620008B81813009F06EC08981282F30E03D83A5
:101630002C838C819D818130910549F12C813D81E4
:10164000223031052CF48C819D81009761F05AC0C5
:101650002C813D812230310571F18C819D81833057
:101660009105E9F14FC0AAE3B0E0EAE3F0E0808140
:10167000482F8A81282F30E081E090E0022E02C0BE
:10168000880F991F0A94E2F7842B8C933BC0A7E341
:10169000B0E0E7E3F0E08081482F8A81282F30E036
:1016A00081E090E0022E02C0880F991F0A94E2F7B1
:1016B000842B8C9327C0A4E3B0E0E4E3F0E08081C6
:1016C000482F8A81282F30E081E090E0022E02C06E
:1016D000880F991F0A94E2F7842B8C9313C0A1E31F
:1016E000B0E0E1E3F0E08081482F8A81282F30E0EC
:1016F00081E090E0022E02C0880F991F0A94E2F761
:10170000842B8C9327960FB6F894DEBF0FBECDBF07
:10171000CF91DF910895DF93CF93CDB7DEB72797B1
:101720000FB6F894DEBF0FBECDBF89836A834B83AB
:101730008A81883008F0EAC08B81882309F074C060
:101740008981282F30E03F832E838E819F818130D5
:10175000910559F12E813F81223031052CF48E8183
:101760009F81009769F0D2C02E813F8122303105E0
:1017700089F18E819F818330910509F440C0C6C0F4
:10178000ABE3B0E0EBE3F0E08081482F8A81282FC3
:1017900030E081E090E0022E02C0880F991F0A9489
:1017A000E2F7809584238C93B1C0A8E3B0E0E8E32E
:1017B000F0E08081482F8A81282F30E081E090E09E
:1017C000022E02C0880F991F0A94E2F780958423A5
:1017D0008C939CC0A5E3B0E0E5E3F0E08081482F66
:1017E0008A81282F30E081E090E0022E02C0880F2D
:1017F000991F0A94E2F7809584238C9387C0A2E313
:10180000B0E0E2E3F0E08081482F8A81282F30E0C9
:1018100081E090E0022E02C0880F991F0A94E2F73F
:10182000809584238C9372C08B81813009F06EC0C7
:101830008981282F30E03D832C838C819D818130EC
:10184000910549F12C813D81223031052CF48C81A8
:101850009D81009761F05AC02C813D812230310575
:1018600071F18C819D8183309105E9F14FC0ABE32B
:10187000B0E0EBE3F0E08081482F8A81282F30E050
:1018800081E090E0022E02C0880F991F0A94E2F7CF
:10189000842B8C933BC0A8E3B0E0E8E3F0E08081C8
:1018A000482F8A81282F30E081E090E0022E02C08C
:1018B000880F991F0A94E2F7842B8C9327C0A5E325
:1018C000B0E0E5E3F0E08081482F8A81282F30E006
:1018D00081E090E0022E02C0880F991F0A94E2F77F
:1018E000842B8C9313C0A2E3B0E0E2E3F0E08081AC
:1018F000482F8A81282F30E081E090E0022E02C03C
:10190000880F991F0A94E2F7842B8C9327960FB6C1
:10191000F894DEBF0FBECDBFCF91DF910895DF9366
:10192000CF9300D000D00F92CDB7DEB78A836B8300
:1019300019828A81282F30E03D832C834C815D8180
:101940004130510541F18C819D818230910534F403
:101950002C813D812115310561F052C04C815D81A2
:101960004230510551F18C819D8183309105B9F14F
:1019700047C0E9E3F0E08081282F30E08B81882F99
:1019800090E0A90102C0559547958A95E2F7CA01F2
:101990008170898335C0E6E3F0E08081282F30E054
:1019A0008B81882F90E0A90102C0559547958A95B3
:1019B000E2F7CA018170898323C0E3E3F0E080810C
:1019C000282F30E08B81882F90E0A90102C0559527
:1019D00047958A95E2F7CA018170898311C0E0E3D7
:1019E000F0E08081282F30E08B81882F90E0A901E2
:1019F00002C0559547958A95E2F7CA01817089839F
:101A000089810F900F900F900F900F90CF91DF91E1
:101A10000895DF93CF9300D000D0CDB7DEB7898390
:101A20006A838981282F30E03C832B838B819C81C2
:101A300081309105D1F02B813C81223031052CF48D
:101A40008B819C81009761F01EC02B813C812230EC
:101A5000310581F08B819C818330910581F013C029
:101A6000EAE3F0E08A8180830EC0E7E3F0E08A8158
:101A7000808309C0E4E3F0E08A81808304C0E1E36D
:101A8000F0E08A8180830F900F900F900F90CF919C
:101A9000DF910895DF93CF9300D000D0CDB7DEB7AC
:101AA00089836A838981282F30E03C832B838B8153
:101AB0009C8181309105D1F02B813C812230310510
:101AC0002CF48B819C81009761F01EC02B813C819E
:101AD0002230310581F08B819C818330910581F02A
:101AE00013C0EBE3F0E08A8180830EC0E8E3F0E00E
:101AF0008A81808309C0E5E3F0E08A81808304C0A5
:101B0000E2E3F0E08A8180830F900F900F900F90B6
:101B1000CF91DF910895DF93CF9300D000D0CDB760
:101B2000DEB78A8319828A81282F30E03C832B8399
:101B30008B819C8181309105D1F02B813C812230B9
:101B400031052CF48B819C81009761F01EC02B81A4
:101B50003C812230310581F08B819C81833091055D
:101B600081F013C0E9E3F0E0808189830EC0E6E3F1
:101B7000F0E08081898309C0E3E3F0E0808189831C
:101B800004C0E0E3F0E08081898389810F900F90A9
:101B90000F900F90CF91DF910895DF93CF9300D0F6
:101BA00000D0CDB7DEB789836A838981282F30E0E2
:101BB0003C832B838B819C818130910549F12B8162
:101BC0003C81223031052CF48B819C81009761F09F
:101BD0005AC02B813C812230310571F18B819C816F
:101BE00083309105E9F14FC0ABE3B0E0EBE3F0E007
:101BF0008081482F8A81282F30E081E090E0022EFA
:101C000002C0880F991F0A94E2F7842B8C933BC083
:101C1000A8E3B0E0E8E3F0E08081482F8A81282F34
:101C200030E081E090E0022E02C0880F991F0A94F4
:101C3000E2F7842B8C9327C0A5E3B0E0E5E3F0E066
:101C40008081482F8A81282F30E081E090E0022EA9
:101C500002C0880F991F0A94E2F7842B8C9313C05B
:101C6000A2E3B0E0E2E3F0E08081482F8A81282FF0
:101C700030E081E090E0022E02C0880F991F0A94A4
:101C8000E2F7842B8C930F900F900F900F90CF91D1
:101C9000DF910895DF93CF9300D000D0CDB7DEB7AA
:101CA00089836A838A81883008F06EC08981282FF1
:101CB00030E03C832B838B819C818130910549F1FD
:101CC0002B813C81223031052CF48B819C81009743
:101CD00061F05AC02B813C812230310571F18B813A
:101CE0009C8183309105E9F14FC0ABE3B0E0EBE3B9
:101CF000F0E08081482F8A81282F30E081E090E059
:101D0000022E02C0880F991F0A94E2F784278C9351
:101D10003BC0A8E3B0E0E8E3F0E08081482F8A818F
:101D2000282F30E081E090E0022E02C0880F991F3A
:101D30000A94E2F784278C9327C0A5E3B0E0E5E39B
:101D4000F0E08081482F8A81282F30E081E090E008
:101D5000022E02C0880F991F0A94E2F784278C9301
:101D600013C0A2E3B0E0E2E3F0E08081482F8A8173
:101D7000282F30E081E090E0022E02C0880F991FEA
:101D80000A94E2F784278C930F900F900F900F9096
:101D9000CF91DF910895DF93CF93CDB7DEB7A6E261
:101DA000B0E0E6E2F0E0808181608C93A6E2B0E0F2
:101DB000E6E2F0E0808182608C93A6E2B0E0E6E2A9
:101DC000F0E0808184608C93A7E2B0E0E7E2F0E08D
:101DD000808180648C93A7E2B0E0E7E2F0E080814C
:101DE0008F778C93A6E2B0E0E6E2F0E08081806835
:101DF0008C93CF91DF910895DF93CF9300D00F9212
:101E0000CDB7DEB78B83A7E2B0E0E7E2F0E08081F8
:101E1000807E8C93A7E2B0E0E7E2F0E08081982F2B
:101E20008B818770892B8C93A6E2B0E0E6E2F0E02C
:101E3000808180648C93E6E2F0E0808182958F70EF
:101E4000882F90E0817090700097A9F3A6E2B0E02F
:101E5000E6E2F0E0808180618C93E4E2F0E0808152
:101E6000882F90E09A838983E5E2F0E08081882FD3
:101E700090E0982F88279C0189819A81822B932B4F
:101E80009A83898389819A810F900F900F90CF91C7
:101E9000DF910895DF93CF9300D00F92CDB7DEB7D7
:101EA00080E00E94FC0E9B838A838A819B81CC0107
:101EB000A0E0B0E024EF31E040E050E0BC01CD0113
:101EC0000E94B716DC01CB01072E7AE0B695A795E4
:101ED000979587957A95D1F7702D898389810F9091
:101EE0000F900F90CF91DF910895DF93CF93CDB7EF
:101EF000DEB782E06FEF0E94090D83E065E041E00C
:101F00000E94870A83E066E041E00E94870A0E94FF
:101F10008C0FCF91DF910895DF93CF93CDB7DEB7CC
:101F200083E065E041E00E948B0B83E066E041E0E6
:101F30000E948B0BCF91DF910895DF93CF930F9287
:101F4000CDB7DEB789838981813059F483E065E0BC
:101F500040E00E948B0B83E066E041E00E948B0B27
:101F60000DC08981823051F483E065E041E00E9438
:101F70008B0B83E066E040E00E948B0B0F90CF91CB
:101F8000DF910895DF93CF93CDB7DEB76F970FB68C
:101F9000F894DEBF0FBECDBF8F8F8F8D9AE0692F73
:101FA0000E94D6168E8F8F8D9AE0692F0E94D616CA
:101FB000892F8D8F8E8D0E94D71081E00E949D0FFA
:101FC00080E090E0A0EAB0E4898F9A8FAB8FBC8F5D
:101FD000698D7A8D8B8D9C8D20E030E04AE755E449
:101FE0000E941F02DC01CB018D8B9E8BAF8BB88FC3
:101FF0006D897E898F89988D20E030E040E85FE32D
:102000000E94790388232CF481E090E09C8B8B8BD9
:102010003FC06D897E898F89988D20E03FEF4FE723
:1020200057E40E94190318164CF5698D7A8D8B8D33
:102030009C8D20E030E040E251E40E941F02DC0170
:10204000CB01BC01CD010E944900DC01CB019C8B7E
:102050008B8B0FC080E991E09A8B898B89899A8953
:102060000197F1F79A8B898B8B899C8901979C8BBF
:102070008B8B8B899C89009769F714C06D897E8949
:102080008F89988D0E944900DC01CB019C8B8B8B42
:102090008B899C89988B8F878F8598890197F1F719
:1020A000988B8F870E948C0F8D8D0E94D71082E0B5
:1020B0000E949D0F80E090E0A0EAB0E48B879C87AF
:1020C000AD87BE876B857C858D859E8520E030E061
:1020D0004AE755E40E941F02DC01CB018F839887F9
:1020E000A987BA876F81788589859A8520E030E055
:1020F00040E85FE30E94790388232CF481E090E0BC
:102100009E838D833FC06F81788589859A8520E085
:102110003FEF4FE757E40E94190318164CF56B8503
:102120007C858D859E8520E030E040E251E40E9470
:102130001F02DC01CB01BC01CD010E944900DC0182
:10214000CB019E838D830FC080E991E09C838B83BC
:102150008B819C810197F1F79C838B838D819E817C
:1021600001979E838D838D819E81009769F714C0AE
:102170006F81788589859A850E944900DC01CB01B1
:102180009E838D838D819E819A83898389819A81A3
:102190000197F1F79A8389830E948C0F6F960FB68F
:1021A000F894DEBF0FBECDBFCF91DF910895DF93CE
:1021B000CF93CDB7DEB760970FB6F894DEBF0FBEF2
:1021C000CDBF8B87CE0101969D878C87ECE6F0E032
:1021D000FF87EE87FAE0F88BEE85FF8500808E851D
:1021E0009F8501969F878E87EC85FD8500828C8573
:1021F0009D8501969D878C8798899150988BE88959
:10220000EE2351F78B858A3070F48B85282F30E0D0
:10221000CE010196FC01E20FF31F908182E0692F4D
:102220000E944A0D04C082E060E00E944A0D609660
:102230000FB6F894DEBF0FBECDBFCF91DF910895EA
:10224000DF93CF9300D00F92CDB7DEB78A83809112
:102250007E00882339F48A819AE0692F0E94D6167D
:102260008B8307C08A819AE0692F0E94D616892F36
:102270008B838B81898389810E94D71080917E0016
:10228000882321F481E00E949D0F03C082E00E9418
:102290009D0F80917E0091E0892780937E000F90B2
:1022A0000F900F90CF91DF910895DF93CF93CDB72B
:1022B000DEB781E060E040E00E948B0B81E061E0EE
:1022C00040E00E948B0B81E062E040E00E948B0BBB
:1022D000CF91DF910895DF93CF9300D000D0CDB799
:1022E000DEB789836A838981282F30E03C832B8382
:1022F0008B819C818130910579F02B813C8122304A
:10230000310581F08B819C81009789F481E060E048
:102310004A810E948B0B0BC081E061E04A810E94E0
:102320008B0B05C081E062E04A810E948B0B0F900D
:102330000F900F900F90CF91DF910895DF93CF937F
:102340000F92CDB7DEB789838981882F90E08230E4
:10235000910521F481E062E00E944A0E0F90CF9136
:10236000DF910895DF93CF93CDB7DEB783E062E0CE
:1023700040E00E94870A83E062E00E94CD0D83E086
:1023800063E040E00E94870A83E063E00E94CD0D95
:1023900083E064E040E00E94870A83E064E00E94FA
:1023A000CD0DCF91DF910895DF93CF93CDB7DEB7F9
:1023B0002F970FB6F894DEBF0FBECDBF83E063E06A
:1023C0000E948F0C882309F07BC080E090E0A8EC8D
:1023D000B2E48B879C87AD87BE876B857C858D85B6
:1023E0009E8520E030E04AE755E40E941F02DC01B0
:1023F000CB018F839887A987BA876F817885898574
:102400009A8520E030E040E85FE30E94790388236A
:102410002CF481E090E09E838D833FC06F817885AE
:1024200089859A8520E03FEF4FE757E40E94190322
:1024300018164CF56B857C858D859E8520E030E0F7
:1024400040E251E40E941F02DC01CB01BC01CD013E
:102450000E944900DC01CB019E838D830FC080E97F
:1024600091E09C838B838B819C810197F1F79C8306
:102470008B838D819E8101979E838D838D819E812B
:10248000009769F714C06F81788589859A850E94C5
:102490004900DC01CB019E838D838D819E819A83CF
:1024A000898389819A810197F1F79A83898383E0EF
:1024B00063E00E948F0C882319F481E08F8701C0AC
:1024C0001F868F852F960FB6F894DEBF0FBECDBF47
:1024D000CF91DF910895DF93CF93CDB7DEB72F97DC
:1024E0000FB6F894DEBF0FBECDBF83E064E00E945C
:1024F0008F0C882309F07BC080E090E0A8ECB2E468
:102500008B879C87AD87BE876B857C858D859E85F7
:1025100020E030E04AE755E40E941F02DC01CB01D5
:102520008F839887A987BA876F81788589859A85EF
:1025300020E030E040E85FE30E94790388232CF438
:1025400081E090E09E838D833FC06F81788589858F
:102550009A8520E03FEF4FE757E40E9419031816D1
:102560004CF56B857C858D859E8520E030E040E2D2
:1025700051E40E941F02DC01CB01BC01CD010E948D
:102580004900DC01CB019E838D830FC080E991E07F
:102590009C838B838B819C810197F1F79C838B8338
:1025A0008D819E8101979E838D838D819E81009771
:1025B00069F714C06F81788589859A850E944900E2
:1025C000DC01CB019E838D838D819E819A838983DB
:1025D00089819A810197F1F79A83898383E064E086
:1025E0000E948F0C882319F481E08F8701C01F8619
:1025F0008F852F960FB6F894DEBF0FBECDBFCF915B
:10260000DF910895DF93CF93CDB7DEB70E945511C8
:102610000E94750FCF91DF910895DF93CF93CDB7CF
:10262000DEB780E061E00E946B1181E060E00E9413
:102630006B11CF91DF910895DF93CF93CDB7DEB7C4
:1026400080E060E00E946B1181E061E00E946B110C
:10265000CF91DF910895DF93CF93CDB7DEB780E0C0
:1026600060E00E946B1181E060E00E946B11CF91ED
:10267000DF910895DF93CF93CDB7DEB72F970FB6D5
:10268000F894DEBF0FBECDBF83E062E00E948F0CE6
:102690008F878F85882309F081C080916900813000
:1026A00009F07CC080917F00882321F481E0809331
:1026B0007F0002C010927F0080E090E0A8E4B3E4C5
:1026C0008B879C87AD87BE876B857C858D859E8536
:1026D00020E030E04AE755E40E941F02DC01CB0114
:1026E0008F839887A987BA876F81788589859A852E
:1026F00020E030E040E85FE30E94790388232CF477
:1027000081E090E09E838D833FC06F8178858985CD
:102710009A8520E03FEF4FE757E40E94190318160F
:102720004CF56B857C858D859E8520E030E040E210
:1027300051E40E941F02DC01CB01BC01CD010E94CB
:102740004900DC01CB019E838D830FC080E991E0BD
:102750009C838B838B819C810197F1F79C838B8376
:102760008D819E8101979E838D838D819E810097AF
:1027700069F714C06F81788589859A850E94490020
:10278000DC01CB019E838D838D819E819A83898319
:1027900089819A810197F1F79A8389838F85809344
:1027A00069002F960FB6F894DEBF0FBECDBFCF9154
:1027B000DF910895DF93CF93CDB7DEB72F970FB694
:1027C000F894DEBF0FBECDBF83E063E00E948F0CA4
:1027D0008F878F85882309F080C080916A008130BF
:1027E00009F07BC0809168008B3428F480916800E8
:1027F0008B5F8093680080E090E0A8E4B3E48B876F
:102800009C87AD87BE876B857C858D859E8520E006
:1028100030E04AE755E40E941F02DC01CB018F83C0
:102820009887A987BA876F81788589859A8520E0FE
:1028300030E040E85FE30E94790388232CF481E0D4
:1028400090E09E838D833FC06F81788589859A85CE
:1028500020E03FEF4FE757E40E94190318164CF5AC
:102860006B857C858D859E8520E030E040E251E4DB
:102870000E941F02DC01CB01BC01CD010E94490076
:10288000DC01CB019E838D830FC080E991E09C83A6
:102890008B838B819C810197F1F79C838B838D8146
:1028A0009E8101979E838D838D819E81009769F71C
:1028B00014C06F81788589859A850E944900DC0162
:1028C000CB019E838D838D819E819A8389838981AB
:1028D0009A810197F1F79A8389838F8580936A00A3
:1028E0002F960FB6F894DEBF0FBECDBFCF91DF910C
:1028F0000895DF93CF93CDB7DEB72F970FB6F89437
:10290000DEBF0FBECDBF83E064E00E948F0C8F87D7
:102910008F85882309F080C080916B00813009F099
:102920007BC080916800843228F0809168008550D7
:102930008093680080E090E0A8E4B3E48B879C87F4
:10294000AD87BE876B857C858D859E8520E030E0D8
:102950004AE755E40E941F02DC01CB018F83988770
:10296000A987BA876F81788589859A8520E030E0CC
:1029700040E85FE30E94790388232CF481E090E033
:102980009E838D833FC06F81788589859A8520E0FD
:102990003FEF4FE757E40E94190318164CF56B857B
:1029A0007C858D859E8520E030E040E251E40E94E8
:1029B0001F02DC01CB01BC01CD010E944900DC01FA
:1029C000CB019E838D830FC080E991E09C838B8334
:1029D0008B819C810197F1F79C838B838D819E81F4
:1029E00001979E838D838D819E81009769F714C026
:1029F0006F81788589859A850E944900DC01CB0129
:102A00009E838D838D819E819A83898389819A811A
:102A10000197F1F79A8389838F8580936B002F96B6
:102A20000FB6F894DEBF0FBECDBFCF91DF910895F2
:102A3000DF93CF930F92CDB7DEB780917F008130C7
:102A400009F062C00E94CB0E0E944A0F89838091D8
:102A500068000E94C20F8981282F30E080916800B1
:102A6000882F90E00597281739070CF580E061E082
:102A70000E946B1181E060E00E946B1180918C00DC
:102A800090918D00019690938D0080938C008091A1
:102A90008C0090918D008431910508F460C082E033
:102AA0000E949E1110928D0010928C0058C0898156
:102AB000282F30E080916800882F90E005968217DB
:102AC00093078CF480E060E00E946B1181E061E08C
:102AD0000E946B1182E061E00E946B1110928D00E8
:102AE00010928C003CC080E060E00E946B1181E09D
:102AF00060E00E946B1182E060E00E946B11109216
:102B00008D0010928C002BC080917F008230A9F440
:102B1000809168000E94C20F80E060E00E946B110B
:102B200081E060E00E946B1182E061E00E946B1125
:102B300010928D0010928C0012C080E060E00E9424
:102B40006B1181E060E00E946B1182E060E00E9406
:102B50006B110E948C0F10928D0010928C000F90C0
:102B6000CF91DF910895DF93CF9300D0CDB7DEB73B
:102B70000E9455110E94750F0E944A0F8A83198284
:102B80000BC08981882F90E0FC01E058FF4F8A81BB
:102B9000808389818F5F898389818A3090F38A81DC
:102BA00080938A000F900F90CF91DF910895DF936B
:102BB000CF93CDB7DEB780E060E00E946B1181E07B
:102BC00060E00E946B1182E060E00E946B110E9445
:102BD0008C0FCF91DF910895DF93CF9300D000D079
:102BE000CDB7DEB70E944A0F8C8380918E00882F6C
:102BF00090E0FC01E058FF4F8C81808380918E0033
:102C0000882F90E001962AE030E0B9010E94F61684
:102C100080938E001B821A82198212C08981882FAC
:102C200090E0FC01E058FF4F8081282F30E08A813E
:102C30009B81820F931F9B838A8389818F5F898306
:102C400089818A3058F38A819B812AE030E0B9017A
:102C50000E94E216CB0180938A0080918A000E9434
:102C6000C20F0E943A160F900F900F900F90CF91C5
:102C7000DF910895DF93CF93CDB7DEB780918A00BF
:102C8000282F30E080916800882F90E00597281762
:102C90003907CCF080918A00282F30E080916800BD
:102CA000882F90E00596821793076CF080E060E033
:102CB0000E946B1181E060E00E946B1182E060E095
:102CC0000E946B1131C080918A00282F30E08091E2
:102CD0006800882F90E00596821793076CF481E0D6
:102CE00061E00E946B1180E060E00E946B1182E065
:102CF00061E00E946B1118C080918A00282F30E09B
:102D000080916800882F90E005972817390764F4B0
:102D100080E061E00E946B1181E060E00E946B1135
:102D200082E061E00E946B11CF91DF910895DF9303
:102D3000CF930F92CDB7DEB78CE389830E943F0A11
:102D40000E94CB0E0E9402130E94AE0880E090E029
:102D50009E012F5F3F4FB9010E94B5080E943A13B0
:102D60000E94DA130E9479140E941815F7CF629F0F
:102D7000D001739FF001829FE00DF11D649FE00D73
:102D8000F11D929FF00D839FF00D749FF00D659FD4
:102D9000F00D9927729FB00DE11DF91F639FB00DD3
:102DA000E11DF91FBD01CF0111240895991B79E0A0
:102DB00004C0991F961708F0961B881F7A95C9F7CB
:102DC00080950895AA1BBB1B51E107C0AA1FBB1F1A
:102DD000A617B70710F0A61BB70B881F991F5A95A7
:102DE000A9F780959095BC01CD01089597FB092E18
:102DF00007260AD077FD04D0E5DF06D000201AF4BC
:102E0000709561957F4F0895F6F7909581959F4F46
:102E100008952F923F924F925F926F927F928F927E
:102E20009F92AF92BF92CF92DF92EF92FF920F9359
:102E30001F93CF93DF93CDB7DEB7CA1BDB0B0FB663
:102E4000F894DEBF0FBECDBF09942A883988488820
:102E50005F846E847D848C849B84AA84B984C884B6
:102E6000DF80EE80FD800C811B81AA81B981CE0FAD
:102E7000D11D0FB6F894DEBF0FBECDBFED01089592
:102E8000FB019F01E8944230C4F04532B4F44A306B
:102E900029F497FB1EF4909581959F4F642F772717
:102EA0000E94E216805D8A330CF0895D8193CB012C
:102EB0000097A1F716F45DE251931082C9010C94BA
:102EC0006117DC01FC01672F71917723E1F73297DD
:102ED00004C07C916D9370836291AE17BF07C8F3F5
:062EE0000895F894FFCFF5
:102EE60000000000000000003C0101013F065B4FAE
:062EF600666D7D077F6F91
:00000001FF
